:0400000033EF00F0EA
:100008005F82F2AC0AEF00F00CEF00F031EF00F085
:100018000E012AA112EF00F014EF00F01FEF00F01C
:1000280034A119EF00F01BEF00F01FEF00F038ECDF
:1000380014F031EF00F02AA324EF00F026EF00F0CF
:1000480031EF00F034A32BEF00F02DEF00F031EF8B
:1000580000F035EC14F031EF00F05F9211007CEF06
:0200680011F095
:1008000000A82700000000000038280000DC2600B7
:1008100000000000002E28000088270000000000D3
:10082000002428000068270000000000001A2800AB
:1008300000022700000000000010280000002550E2
:10084000800B2E6E25502524306E24AE2AEF04F046
:100850002CEF04F02DEF04F030803050D8B433EF9B
:1008600004F035EF04F049EF04F03028D8A43BEF52
:1008700004F03DEF04F045EF04F0000E226E000E90
:10088000236E000E246E000E256E248E256A51EF15
:1008900004F0000E226E000E236E000E246E000E79
:1008A000256E2950800B2F6E2E502F18D8B45BEF79
:1008B00004F05DEF04F05EEF04F02E8C2950292443
:1008C0002F6E28AE66EF04F068EF04F069EF04F0D5
:1008D0002F802F50D8B46FEF04F071EF04F085EF44
:1008E00004F02F28D8A477EF04F079EF04F081EF1B
:1008F00004F0000E266E000E276E000E286E000E0D
:10090000296E288E296A8DEF04F0000E266E000EE7
:10091000276E000E286E000E296E30502F5CD8B066
:1009200094EF04F096EF04F0BDEF04F02EAC9BEFD3
:1009300004F09DEF04F09FEF04F0800E2E1A30C0FB
:1009400031F02FC030F031C02FF022C031F026C07E
:1009500022F031C026F023C031F027C023F031C08F
:1009600027F024C031F028C024F031C028F025C081
:1009700031F029C025F031C029F0316A30502FC044
:100980002AF02B6A2A5E000E2B5A2BBED1EF04F000
:100990002B5009E11A0E2A5CD8A0D1EF04F0D3EF56
:1009A00004F00AEF05F02250231024102510D8A4DB
:1009B000DCEF04F0DFEF04F0010EE0EF04F0000ED6
:1009C000316E000E226E000E236E000E246E000E9D
:1009D000256E2FC030F013EF05F031A0F2EF04F0D8
:1009E000F4EF04F0FAEF04F0D89031300109316EE1
:1009F000FCEF04F0D890313222A001EF05F003EFB4
:100A000005F004EF05F0318E2534253224322332EF
:100A10002232302A2F50305CD8A011EF05F013EFAE
:100A200005F0EDEF04F02EBC18EF05F01AEF05F01D
:100A30005AEF05F03050D8A420EF05F022EF05F072
:100A40002CEF05F0000E226E000E236E000E246EB9
:100A5000000E256E79EF06F026502226275023221D
:100A6000285024222950252225A039EF05F03BEFFC
:100A700005F0E7EF05F031A040EF05F042EF05F09B
:100A800048EF05F0D89031300109316E4AEF05F09A
:100A9000D890313222A04FEF05F051EF05F052EF20
:100AA00005F0318E25342532243223322232302A89
:100AB000E7EF05F02650225C275023582850245891
:100AC0002550800A2A6E2950800A2A58D8B06BEF28
:100AD00005F06DEF05F098EF05F02250265C2A6EC8
:100AE000235027582B6E245028582C6E25502958F7
:100AF0002D6EFF0E2A24226EFF0E2B20236EFF0E7A
:100B00002C20246EFF0E2D20256E800E2E1A316CA7
:100B10003150D8A48EEF05F090EF05F0A0EF05F06E
:100B2000010E2226000E232224222522A0EF05F00A
:100B30002650225E2750235A2850245A2950255ADD
:100B40002250231024102510D8A4A9EF05F0ABEFF4
:100B500005F0E0EF05F03150D8A4B1EF05F0B3EFA8
:100B600005F0E0EF05F0000E226E000E236E000E81
:100B7000246E000E256E79EF06F0D89022362336CB
:100B80002436253631AEC7EF05F0C9EF05F0CAEFC0
:100B900005F0228031A0CFEF05F0D1EF05F0D5EFC1
:100BA00005F0D8803136D7EF05F0D8903136305087
:100BB000D8B4DDEF05F0DFEF05F0E0EF05F030062B
:100BC00024AEE5EF05F0E7EF05F0BDEF05F02F6A85
:100BD00031AEEDEF05F0EFEF05F007EF06F031C0B5
:100BE0002AF07F0E2A16D8B4F8EF05F0FAEF05F0D8
:100BF000FEEF05F0010E2F6E07EF06F022A003EFC7
:100C000006F005EF06F007EF06F0FAEF05F02F50BB
:100C1000D8B40DEF06F00FEF06F03AEF06F0010E34
:100C20002226000E23222422252225A01AEF06F0D8
:100C30001CEF06F03AEF06F022C02AF023C02BF09A
:100C400024C02CF025C02DF02D342D322C322B3227
:100C50002A322AC022F02BC023F02CC024F02DC051
:100C600025F03028D8B437EF06F039EF06F03AEF28
:100C700006F0302A3028D8B440EF06F042EF06F0F4
:100C80004AEF06F03050D8A448EF06F04AEF06F0DD
:100C90005BEF06F0000E226E000E236E000E246E37
:100CA000000E256E3050D8A458EF06F05AEF06F02B
:100CB0005BEF06F02E6A30A060EF06F062EF06F000
:100CC00065EF06F0248E66EF06F0249ED890303053
:100CD000256E2EAE6EEF06F070EF06F071EF06F0A7
:100CE000258E22C022F023C023F024C024F025C08A
:100CF00025F012005CEF08F0BEEC0AF00001705124
:100D0000D8A485EF06F087EF06F08FEF06F0785154
:100D1000D8B48DEF06F08FEF06F095EF06F0000ED9
:100D20000E6E010E0D6E86EF08F06851D8B49BEF81
:100D300006F09DEF06F0A3EF06F0000E0E6E060E15
:100D40000D6E86EF08F06051D8B4A9EF06F0ABEF56
:100D500006F0B1EF06F0000E0E6E070E0D6E86EF78
:100D600008F01A50D8B4B7EF06F0B9EF06F08FEFDD
:100D700006F0A051D8B4BFEF06F0C1EF06F0C7EF00
:100D800006F0000E0E6E030E0D6E86EF08F0885111
:100D9000D8B4CDEF06F0CFEF06F0D1EF06F0C1EFFB
:100DA00006F09151D8B4D7EF06F0D9EF06F0DFEF97
:100DB00006F0000E0E6E040E0D6E86EF08F09851D0
:100DC000D8B4E5EF06F0E7EF06F08FEF06F0D9EFC5
:100DD00006F0BEEC0AF000017051D8A4F2EF06F064
:100DE000F4EF06F0FCEF06F07851D8B4FAEF06F015
:100DF000FCEF06F002EF07F0000E0E6E020E0D6E15
:100E000086EF08F06851D8B408EF07F00AEF07F052
:100E10000CEF07F09DEF06F06051D8B412EF07F029
:100E200014EF07F016EF07F0ABEF06F01A50D8B446
:100E30001CEF07F01EEF07F0FCEF06F0A051D8B44E
:100E400024EF07F026EF07F028EF07F0C1EF06F0D8
:100E50008851D8B42EEF07F030EF07F032EF07F0EB
:100E6000C1EF06F09151D8B438EF07F03AEF07F030
:100E70003CEF07F0C1EF06F09851D8B442EF07F00D
:100E800044EF07F0FCEF06F0D9EF06F049EC0BF069
:100E9000000E176E000E166E00017051D8A453EFAD
:100EA00007F055EF07F0FCEF06F07851D8B45BEF90
:100EB00007F05DEF07F05FEF07F0FCEF06F0685119
:100EC000D8B465EF07F067EF07F069EF07F09DEF23
:100ED00006F09151D8B46FEF07F071EF07F0C1EF52
:100EE00006F08FEF06F0D4EC0BF0000E176E000E3C
:100EF000166E000E1D6E000E1C6E00017051D8A4FF
:100F000084EF07F086EF07F08FEF06F07851D8B442
:100F10008CEF07F08EEF07F090EF07F08FEF06F001
:100F20006051D8B496EF07F098EF07F09AEF07F00A
:100F3000ABEF06F0A051D8B4A0EF07F0A2EF07F096
:100F4000A8EF07F0000E0E6E050E0D6E86EF08F08E
:100F50008851D8B4AEEF07F0B0EF07F0B2EF07F06A
:100F6000A2EF07F09151D8B4B8EF07F0BAEF07F04D
:100F7000BCEF07F0FCEF06F08051D8B4C2EF07F0E9
:100F8000C4EF07F0D9EF06F0A2EF07F0BEEC0AF0CD
:100F90002050D8B4CEEF07F0D0EF07F0A2EF07F063
:100FA000C1EF06F0BEEC0AF000017051D8A4DBEFEF
:100FB00007F0DDEF07F09DEF06F07851D8B4E3EFCE
:100FC00007F0E5EF07F0E7EF07F09DEF06F0A0511F
:100FD000D8B4EDEF07F0EFEF07F0F1EF07F09DEF7A
:100FE00006F08851D8B4F7EF07F0F9EF07F0FBEF00
:100FF00007F09DEF06F08051D8B401EF08F003EF41
:1010000008F005EF08F09DEF06F01A50D8B40BEF8A
:1010100008F00DEF08F09DEF06F09851D8B413EFEB
:1010200008F015EF08F017EF08F0D9EF06F091512E
:10103000D8B41DEF08F01FEF08F09DEF06F0D9EFD0
:1010400006F0BEEC0AF000017051D8A42AEF08F0B7
:101050002CEF08F0ABEF06F07851D8B432EF08F07F
:1010600034EF08F036EF08F0ABEF06F01A50D8B4C2
:101070003CEF08F03EEF08F0ABEF06F0A051D8B41B
:1010800044EF08F046EF08F048EF08F0C1EF06F033
:101090008851D8B44EEF08F050EF08F052EF08F046
:1010A000C1EF06F09151D8B458EF08F05AEF08F0AC
:1010B000ABEF06F0C1EF06F00DC03AF00EC03BF00A
:1010C0003B50000AD8B467EF08F086EF08F03A50BA
:1010D000010AD8B47CEF06F0030AD8B4E9EF06F0B1
:1010E000010AD8B446EF07F0070AD8B473EF07F047
:1010F000010AD8B4C6EF07F0030AD8B4D2EF07F05C
:10110000010AD8B421EF08F086EF08F01200276E2C
:101110002250D96EDA6A060ED926DF50D8A493EF92
:1011200008F095EF08F035EF09F02750D8A49BEFB1
:1011300008F09DEF08F01EEF09F02250D96EDA6A30
:10114000040ED9262250E16EE26A020EE126DE503C
:10115000E65CDE50E658D8B0B0EF08F0B2EF08F029
:10116000C6EF08F02250D96EDA6A020ED926DE2ABE
:10117000000EDD222250D96EDA6ADF6A2250D96E63
:10118000DA6A010ED926DF6A35EF09F02250D96EEE
:10119000DA6A040ED9262250E16EE26A020EE126D6
:1011A000DE50E61807E1DE50E618D8A4DAEF08F0C2
:1011B000DCEF08F000EF09F02250D96EDA6A040E75
:1011C000D926DECF23F0DDCF24F0010E2326000E3A
:1011D00024222250D96EDA6A020ED92623C0DEFFFD
:1011E00024C0DDFF2250D96EDA6A010EDF6E225074
:1011F000D96EDA6A010ED926010EDF6E35EF09F0DD
:101200002250D96EDA6A040ED926DECF23F0DDCF64
:1012100024F0010E2326000E24222250D96EDA6A11
:10122000020ED92623C0DEFF24C0DDFF2250D96E76
:10123000DA6A010ED926DF6A35EF09F02250D96E3D
:10124000DA6A020ED926DE6ADD6A2250D96EDA6ABF
:10125000DF6A2250D96EDA6A010ED926DF6A22507F
:10126000D96EDA6A070ED926DF6A2250D96EDA6A99
:10127000060ED926DE04D8A440EF09F042EF09F0AB
:10128000E3EF09F02750D8B448EF09F04AEF09F02E
:10129000CCEF09F02250D96EDA6A040ED92622501A
:1012A000E16EE26A020EE126DE50E65CDE50E658B0
:1012B000D8B05DEF09F05FEF09F073EF09F022504D
:1012C000D96EDA6A020ED926DE2A000EDD222250FD
:1012D000D96EDA6ADF6A2250D96EDA6A010ED9262F
:1012E000DF6AE3EF09F02250D96EDA6A040ED926DC
:1012F0002250E16EE26A020EE126DE50E61807E1B6
:10130000DE50E618D8A487EF09F089EF09F0ADEFB9
:1013100009F02250D96EDA6A040ED926DECF23F006
:10132000DDCF24F0010E2326000E24222250D96E98
:10133000DA6A020ED92623C0DEFF24C0DDFF225068
:10134000D96EDA6A010EDF6E2250D96EDA6A010EAA
:10135000D926010EDF6EE3EF09F02250D96EDA6A6A
:10136000040ED926DECF23F0DDCF24F0010E232694
:10137000000E24222250D96EDA6A020ED92623C02A
:10138000DEFF24C0DDFF2250D96EDA6A010ED926B5
:10139000010EDF6EE3EF09F02250D96EDA6A020E19
:1013A000D926DE6ADD6A2250D96EDA6ADF6A2250F7
:1013B000D96EDA6A010ED926DF6A2250D96EDA6A4E
:1013C000070ED926DF6A12002A6E2A50D8B4EBEF36
:1013D00009F0EDEF09F00FEF0AF025BEF4EF09F088
:1013E000F2EF09F00FEF0AF022C026F023C027F039
:1013F00024C028F025C029F0261E271E281E291EDD
:10140000262A000E27222822292226C02CF027C0B7
:101410002DF028C02EF029C02FF017EF0AF022C0BF
:101420002CF023C02DF024C02EF025C02FF0225028
:10143000231024102510D8A420EF0AF022EF0AF080
:101440002CEF0AF0000E226E000E236E000E246EAA
:10145000000E256EBDEF0AF0960E2B6E36EF0AF0E9
:101460002B2AD8902F322E322D322C32000E2C14F3
:10147000266E000E2D14276E000E2E14286EFE0E02
:101480002F14296E2650271028102910D8A44BEFAE
:101490000AF04DEF0AF030EF0AF05BEF0AF02B2A6A
:1014A000010E2C26000E2D222E222F22D8902F3214
:1014B0002E322D322C32000E2C14266E000E2D14DE
:1014C000276E000E2E14286EFF0E2F14296E265044
:1014D000271028102910D8A470EF0AF072EF0AF034
:1014E0004FEF0AF07AEF0AF02B06D8902C362D3603
:1014F0002E362F362EBE7FEF0AF081EF0AF089EFED
:101500000AF0020E2B6087EF0AF089EF0AF074EF01
:101510000AF02BB08EEF0AF090EF0AF091EF0AF08C
:101520002E9ED8902B322BC026F0276A286A296A73
:1015300026C029F0286A276A266A26502C122750CE
:101540002D1228502E1229502F122A50D8B4ABEF4A
:101550000AF0ADEF0AF0B5EF0AF025BEB4EF0AF0DD
:10156000B2EF0AF0B5EF0AF02F8E2CC022F02DC09A
:1015700023F02EC024F02FC025F012000C5009E1FA
:10158000100E0B5CD8A0C7EF0AF0C9EF0AF039EFD4
:101590000BF00001C451D8B4D0EF0AF0D2EF0AF03A
:1015A00048EF0BF001C032F002C033F003C034F05A
:1015B00004C035F0000E366E000E376EA00E386E89
:1015C000400E396E82EC12F032C001F033C002F0EE
:1015D00034C003F035C004F001C022F002C023F093
:1015E00003C024F004C025F0000E266E000E276E06
:1015F000700E286E410E296E68EC0DF0D8B003EF26
:101600000BF005EF0BF00DEF0BF0000E016E000E6E
:10161000026E700E036E410E046E01C022F002C015
:1016200023F003C024F004C025F0E5EC0CF022C048
:101630000BF023C00CF00BC022F00CC023F0246A86
:10164000256A000EE4EC09F022C001F023C002F08C
:1016500024C003F025C004F00BC022F00CC023F01E
:10166000E5EC12F0000E0001C16F000EC06F48EFF4
:101670000BF07A98000E236E000E226EE5EC12F04D
:10168000000E016E000E026E000E036E000E046E60
:1016900012007C8A7A987D8A1450D8B452EF0BF0ED
:1016A00054EF0BF0D3EF0BF00C5007E14B0E0B5C3B
:1016B000D8B05DEF0BF05FEF0BF075EF0BF0000EA5
:1016C000016E000E026E960E036E420E046E01C095
:1016D00022F002C023F003C024F004C025F0E5ECA2
:1016E0000CF022C00BF023C00CF00C5007E1AF0E41
:1016F0000B5CD8B07EEF0BF080EF0BF0D3EF0BF06C
:1017000001C022F002C023F003C024F004C025F081
:10171000000E266E000E276E200E286E410E296EDA
:101720001FEC04F022C001F023C002F024C003F03B
:1017300025C004F0000E226E000E236E2F0E246EC4
:10174000430E256E01C026F002C027F003C028F02A
:1017500004C029F068EC0DF0D8B0B1EF0BF0B3EF96
:101760000BF0BBEF0BF0000E016E000E026E2F0EA1
:10177000036E430E046E01C022F002C023F003C0CA
:1017800024F004C025F0E5EC0CF022C00BF023C0DF
:101790000CF00BC022F00CC023F0E5EC12F0000EB0
:1017A000116E000E106E12007C8A7A987D9A145089
:1017B000D8B4DDEF0BF0DFEF0BF05EEF0CF00C5068
:1017C00007E14B0E0B5CD8B0E8EF0BF0EAEF0BF043
:1017D00000EF0CF0000E016E000E026E960E036E0E
:1017E000420E046E01C022F002C023F003C024F0B8
:1017F00004C025F0E5EC0CF022C00BF023C00CF087
:101800000C5007E1AF0E0B5CD8B009EF0CF00BEFFA
:101810000CF05EEF0CF001C022F002C023F003C018
:1018200024F004C025F0000E266E000E276E200E58
:10183000286E410E296E1FEC04F022C001F023C077
:1018400002F024C003F025C004F0000E226E000E4A
:10185000236E2F0E246E430E256E01C026F002C0AB
:1018600027F003C028F004C029F068EC0DF0D8B0D0
:101870003CEF0CF03EEF0CF046EF0CF0000E016E6A
:10188000000E026E2F0E036E430E046E01C022F096
:1018900002C023F003C024F004C025F0E5EC0CF0F6
:1018A00022C00BF023C00CF00BC022F00CC023F0C0
:1018B000E5EC12F0000E116E000E106E12002350B7
:1018C000D8A465EF0CF067EF0CF074EF0CF0225029
:1018D000D96EDA6A050ED926DF50D8B472EF0CF053
:1018E00074EF0CF08EEF0CF02250D96EDA6A020E13
:1018F000D926DECF24F0DDCF25F0010E2426000E00
:1019000025222250D96EDA6A24C0DEFF25C0DDFF11
:101910002250D96EDA6A040ED926DF6A2250D96EB7
:10192000DA6A020ED9262250E16EE26ADE50E65CE7
:10193000DE50E658D8B09FEF0CF0A1EF0CF0B5EFF9
:101940000CF02250D96EDA6ADE2A000EDD22225017
:10195000D96EDA6A040ED926DF6A2250D96EDA6AA5
:10196000050ED926DF6AE4EF0CF02250D96EDA6A50
:10197000020ED9262250E16EE26ADE50E61807E137
:10198000DE50E618D8A4C7EF0CF0C9EF0CF0E4EF76
:101990000CF02250D96EDA6A020ED926DECF24F07E
:1019A000DDCF25F0010E2426000E25222250D96E0F
:1019B000DA6A24C0DEFF25C0DDFF2250D96EDA6A64
:1019C000040ED926010EDF6E1200243425342B6E4E
:1019D0002B50D8A4EEEF0CF0F0EF0CF0FAEF0CF077
:1019E000000E226E000E236E000E246E000E256E79
:1019F00067EF0DF022C026F023C027F024C028F0A6
:101A000025C029F0200E0AEF0DF0D8902932283297
:101A100027322632E82E05EF0DF026502A6E248E4E
:101A2000FF0E2216FF0E2316FF0E2416000E25169B
:101A3000960E2B5E2BBE21EF0DF01FEF0DF037EF52
:101A40000DF02B50800A970FD8B029EF0DF02BEF37
:101A50000DF02DEF0DF0F0EF0CF0D8902532243280
:101A6000233222322B3E2DEF0DF04FEF0DF01F0EE3
:101A70002B643DEF0DF03FEF0DF047EF0DF0F0EF71
:101A80000CF0D89022362336243625362B062B50E0
:101A9000D8A44DEF0DF04FEF0DF041EF0DF02A50AF
:101AA000D8B455EF0DF057EF0DF05FEF0DF0251E98
:101AB000241E231E226C000E23222422252222C053
:101AC00022F023C023F024C024F025C025F012000A
:101AD000000E22142A6E000E23142B6E800E241486
:101AE0002C6E7F0E25142D6E2A502B102C102D10CD
:101AF000D8A47DEF0DF07FEF0DF087EF0DF0000E15
:101B0000226E000E236E000E246E000E256E000E57
:101B100026142A6E000E27142B6E800E28142C6EAD
:101B20007F0E29142D6E2A502B102C102D10D8A4A6
:101B30009CEF0DF09EEF0DF0A6EF0DF0000E266E5F
:101B4000000E276E000E286E000E296E25AEABEF3C
:101B50000DF0ADEF0DF0B6EF0DF0226C231ED8B0F6
:101B6000232A241ED8B0242A800E255629AEBBEF86
:101B70000DF0BDEF0DF0C6EF0DF0266C271ED8B0AE
:101B8000272A281ED8B0282A800E2956000E221A8D
:101B9000000E231A000E241A800E251A000E261A93
:101BA000000E271A000E281A800E291A2650225CD1
:101BB000275023582850245829502558D8B0E3EFEF
:101BC0000DF0E5EF0DF0E8EF0DF0D890E9EF0DF036
:101BD000D88012000001AE51D8B4F1EF0DF0F3EF50
:101BE0000DF00EEF0EF0A851D8B4F9EF0DF0FBEFA9
:101BF0000DF00EEF0EF086907EB001EF0EF004EFC8
:101C00000EF0010E05EF0EF0000EFF0A226E7E5060
:101C10002218FE0B22187E6E27EF0EF0AE51D8B4BC
:101C200014EF0EF016EF0EF01AEF0EF086907E8095
:101C300027EF0EF0A851D8B420EF0EF022EF0EF0EF
:101C400026EF0EF086907E9027EF0EF08680BA5138
:101C5000D8B42DEF0EF02FEF0EF04BEF0EF0B45185
:101C6000D8B435EF0EF037EF0EF04BEF0EF0869252
:101C70007EB23DEF0EF040EF0EF0010E41EF0EF0A0
:101C8000000EFF0A226E22467E502218FD0B2218FB
:101C90007E6E64EF0EF0BA51D8B451EF0EF053EFF0
:101CA0000EF057EF0EF086927E9264EF0EF0B45174
:101CB000D8B45DEF0EF05FEF0EF063EF0EF086929A
:101CC0007E8264EF0EF086821200A00E226E8BB42C
:101CD0006CEF0EF06FEF0EF0010E70EF0EF0000ED5
:101CE00087EC08F0980E226E8BBA79EF0EF07CEF3D
:101CF0000EF0010E7DEF0EF0000E87EC08F0800E66
:101D0000226E8BB686EF0EF089EF0EF0010E8AEF91
:101D10000EF0000E87EC08F0880E226E8BBE93EF5B
:101D20000EF096EF0EF0010E97EF0EF0000E87EC1E
:101D300008F0780E226E89BCA0EF0EF0A3EF0EF033
:101D4000010EA4EF0EF0000E87EC08F0700E226E6C
:101D50008BB8ADEF0EF0B0EF0EF0010EB1EF0EF05C
:101D6000000E87EC08F0900E226E8BBCBAEF0EF0DE
:101D7000BDEF0EF0010EBEEF0EF0000E87EC08F086
:101D8000680E226E8AB2C7EF0EF0CAEF0EF0010E97
:101D9000CBEF0EF0000E87EC08F0600E226E8AB0DA
:101DA000D4EF0EF0D7EF0EF0010ED8EF0EF0000ECC
:101DB00087EC08F01200276A25BEE3EF0EF0E1EF92
:101DC0000EF0E9EF0EF0246C251ED8B0252A010E86
:101DD000276E23BEF0EF0EF0EEEF0EF0F6EF0EF0F2
:101DE000226C231ED8B0232A010E271A000E296E5A
:101DF000000E286E24502510D8B401EF0FF003EF29
:101E00000FF02BEF0FF0010E266E0BEF0FF0D890B6
:101E100024362536262A25AE10EF0FF012EF0FF0EC
:101E200007EF0FF0D890283629362450225C255031
:101E30002358D8A01EEF0FF020EF0FF025EF0FF082
:101E40002450225E2550235A2880D89025322432EF
:101E5000262E12EF0FF02750D8B431EF0FF033EFEA
:101E60000FF037EF0FF0286C291ED8B0292A28C0B0
:101E700022F029C023F0120043503F5C3B6E4450D7
:101E800040583C6E455041583D6E465042583E6E5B
:101E90003E503D100BE1F40E3B5C010E3C58D8A0C7
:101EA00054EF0FF056EF0FF09CEF0FF047C022F009
:101EB00048C023F049C024F04AC025F0600E266EC9
:101EC000EA0E276E000E286E000E296E47EC11F008
:101ED00022C02EF023C02FF024C030F025C031F0F6
:101EE000DC0E326E050E336E000E346E000E356E53
:101EF000FCEC0FF02EC04BF02FC04CF04BC022F08A
:101F00004CC023F0000E256E1E0E246ED4EC10F093
:101F100022C04BF023C04CF0000E476E000E486EFE
:101F2000000E496E000E4A6E3FC043F040C044F0C0
:101F300041C045F042C046F01200796A7A6A7B6A75
:101F40007C6A7D6A7E6A7F6A806A0E01906B986BFC
:101F5000A06BA56BAD6BB26BBA6BBF6B770E816E6E
:101F6000CF0E826EFE0E836ECF0E846E9D0E856E3A
:101F7000FC0E866EDF0E876E0C0E886E360E926F2C
:101F8000C00E9A6F4F0EA76F8D0EAF6FFC0EB46F21
:101F90009E0EBC6F916B996BA16BA66BAE6BB36B16
:101FA000BB6BC06B8F6997699F69A469AC69B169A4
:101FB000DF0EB96F0F0EBE6F8E6996699E69A369B9
:101FC000AB69B069B8690F0EBD6F006B110E0D01E2
:101FD000FF6F240EFE6F0A0E0E01786F956B946BE7
:101FE000936B9D6B9C6B9B6BAA6BA96BA86BB76B80
:101FF000B66BB56B29891200000E366E000E376E77
:10200000000E386E000E396E325033103410351019
:10201000D8B40DEF10F00FEF10F045EF10F0010EF7
:102020003A6E19EF10F0D8903236333634363536F2
:102030003A2A35AE1EEF10F020EF10F013EF10F03B
:10204000D890363637363836393632502E5C3350E3
:102050002F583450305835503158D8A032EF10F046
:1020600034EF10F03DEF10F032502E5E33502F5A07
:102070003450305A3550315A3680D8903532343257
:10208000333232323A2E20EF10F036C02EF037C005
:102090002FF038C030F039C031F01200000E8AB491
:1020A000010E226E000E8AB6010E236E2250D8B4A5
:1020B0005CEF10F05EEF10F090EF10F05450D8A4E9
:1020C00064EF10F066EF10F090EF10F02350D8B4EA
:1020D0006CEF10F06EEF10F072EF10F0010E556E15
:1020E00073EF10F055685504D8A479EF10F07BEF2A
:1020F00010F083EF10F0010E4726000E482249220F
:102100004A2290EF10F05528D8A489EF10F08BEFF9
:1021100010F090EF10F04706000E485A495A4A5AFC
:1021200022C054F023C053F0120000016851D8B40B
:102130009CEF10F09EEF10F0BAEF10F06051D8B4A1
:10214000A4EF10F0A6EF10F0BAEF10F085927DB278
:10215000ACEF10F0AFEF10F0010EB0EF10F0000E8A
:10216000FF0A226E22467D502218FD0B22187D6E3A
:10217000D3EF10F06851D8B4C0EF10F0C2EF10F0F8
:10218000C6EF10F085927D82D3EF10F06051D8B485
:10219000CCEF10F0CEEF10F0D2EF10F085927D92E0
:1021A000D3EF10F085821200000E276E000E266E0F
:1021B00024502510D8B4DFEF10F0E1EF10F009EF54
:1021C00011F0010E286EE9EF10F0D8902436253674
:1021D000282A25AEEEEF10F0F0EF10F0E5EF10F04A
:1021E000D890263627362450225C25502358D8A074
:1021F000FCEF10F0FEEF10F003EF11F02450225E20
:102200002550235A2680D89025322432282EF0EFEC
:1022100010F026C022F027C023F0120000000000BA
:1022200005000000000000000500000000000000A4
:102230001400000000000000140000000000000076
:102240001400000000000000140000000000000066
:102250001400000000000000140000000000000056
:102260001400000000000005000000000005000050
:102270000000000500000000000500000000320022
:1022800000000000C80000000000F4010000000E83
:102290002A6E000E2B6E000E2C6E000E2D6E22A0EC
:1022A00054EF11F056EF11F05EEF11F026502A2690
:1022B00027502B2228502C2229502D22D890263608
:1022C000273628362936D890253224322332223236
:1022D0002250231024102510D8A471EF11F073EFB1
:1022E00011F04FEF11F02AC022F02BC023F02CC0C8
:1022F00024F02DC025F012001C0EF66E220EF76E93
:10230000000EF86E00EE60F010EE72F00900F5CFEE
:10231000EEFFE550E150FAE1260EF66E270EF76E5D
:10232000000EF86E00EE01F010EE21F00900F5CF7E
:10233000EEFFE550E150FAE100EED2F0120EEE6A47
:10234000E806FDE100EE3FF0180EEE6AE806FDE15A
:102350005F905F92000EF86E00015DEF12F00E01CB
:1023600033ABB5EF11F0B7EF11F0AFEF11F0339BD6
:102370001C0E226E000E236E5FEC0CF0160E226E09
:10238000000E236E5FEC0CF0C60E226E000E236E64
:102390005FEC0CF0CC0E226E000E236E5FEC0CF0A6
:1023A000100E226E000E236E5FEC0CF0C00E226E3B
:1023B000000E236E5FEC0CF01200000E2D6E000E6E
:1023C0002C6E000E2F6E000E2E6E1E0E43EC13F0C0
:1023D00022502C2623502D222E4A2F2A2FBEFAEFD0
:1023E00011F02F5009E10A0E2E5CD8A0FAEF11F07F
:1023F000FCEF11F0E5EF11F02CC022F02DC023F01E
:10240000000E256E0A0E246EDBEC0EF022C02AF0C0
:1024100023C02BF01200609E0E012A912A93349162
:102420003493000E516E000E526E000E4F6E000E71
:10243000506E566A6A6A6B6A6C6A6D6A686A696A23
:10244000666A3C0E0F015F6F5C6B5D6B5E6B596B78
:10245000180E5A6F100E5B6F656A586B030E576F3C
:10246000566B0E012A912A93C40E606E1200F29AE6
:102470000E013391F280000E226E000E236E30ECBE
:1024800014F00E013393F282000E226E000E236EC2
:102490002BEC14F00E013395F284000E226E000E28
:1024A000236E26EC14F00E013397F296000E226E86
:1024B000000E236E21EC14F0120059EC13F0A4EC82
:1024C00013F0A4EC13F0828482860E01998599871B
:1024D000DDEC11F02AC04DF02BC04EF0AFEC11F046
:1024E000E4EC13F065EC0EF0EDEC13F03CEC0FF0C7
:1024F00016EC13F0FFEC12F07AEC06F068EF12F035
:1025000033EF00F0000E361A000E371A000E381A9C
:10251000800E391A32C022F033C023F034C024F0C8
:1025200035C025F036C026F037C027F038C028F077
:1025300039C029F01FEC04F022C032F023C033F080
:1025400024C034F025C035F01200590E275C020E6D
:102550002858D8A0AEEF12F0B0EF12F0C2EF12F090
:10256000200E275C030E2858D8B0B9EF12F0BBEF4D
:1025700012F0C2EF12F02950D96EDA6A010EDF6E46
:10258000C6EF12F02950D96EDA6ADF6A1200030E24
:102590000D180E10D8A4CFEF12F0D1EF12F0D5EF36
:1025A00012F084987C98E4EF12F0040E0D180E10CF
:1025B000D8A4DDEF12F0DFEF12F0E3EF12F0849811
:1025C0007C88E4EF12F08488120022C024F023C03B
:1025D00025F0D89025322432D89025322432245048
:1025E000A36E22C024F0030E2416060E256ED8908A
:1025F0002436252EF7EF12F02450A26E1200360E6C
:1026000043EC13F022C027F023C028F0BA0E296E45
:10261000A5EC12F0020E43EC13F022C027F023C009
:1026200028F0B40E296EA5EC12F01200040E43EC53
:1026300013F022C027F023C028F0AE0E296EA5ECBF
:1026400012F0050E43EC13F022C027F023C028F04F
:10265000A80E296EA5EC12F0120000017051D8A44A
:1026600034EF13F036EF13F03EEF13F07851D8B497
:102670003CEF13F03EEF13F041EF13F0799E42EF81
:1026800013F0798E1200266E26C05FFF609C60807A
:1026900060B04DEF13F04FEF13F048EF13F06450BC
:1026A000256E246A63502424226E000E2520236E9A
:1026B0001200FFEC13F09DEC0FF00BEC12F0F6ECB7
:1026C00013F0D4EC13F06EEC13F0C4EC13F0B4EC94
:1026D00013F081EC13F037EC12F01200010EBF6E14
:1026E000070EBE6EC06A420EBC6EBB6A000E226E42
:1026F000000E236E17EC14F00E013893820EBD6E9F
:1027000012000F012C6B2B6B2D6B2969286B000EAF
:10271000226E000E236E08EC14F00E01389F800E1E
:102720000F012A6F120000007041AF0005000A007F
:102730000F000100010000C80000000000F40100CB
:07274000000000E8030000A7
:102748007A887C9A210EE82EFED700007C8A1A0E21
:10275800226EF80EE82EFED7222EFCD700D01200EB
:10276800B36AB26AB46AB068AF6A000E226E000E2D
:10277800236E0DEC14F00E01389B800EB16E120022
:10278800B96AB86ABA6AB668B56A000E226E000EEF
:10279800236E12EC14F00E013897800EB76E1200FB
:1027A800F90ED46ED36A500ED66E000E226E000E4D
:1027B800236E1CEC14F00E01339B870ED56E1200AD
:1027C800010E3F26000E4022412242224EEC10F01C
:1027D80012002DEC13F0EAEC0DF095EC10F0C7ECBC
:1027E80012F01200800EA46E210EA36E400EA26E8F
:1027F800F30EAE161200600E0E01436F456B476B69
:10280800030E496F486B120022C0ECF023C0EDF0B4
:10281800120022C0EAF023C0EBF0120022C0E8F058
:1028280023C0E9F0120022C0E6F023C0E7F012004E
:1028380022C0E4F023C0E5F0120022C057F023C004
:1028480058F0120022C059F023C05AF0120022C0DA
:102858005BF023C05CF0120022C05DF023C05EF084
:0E28680012000E01349312000E013491120082
:020000040030CA
:0C0000008CFF3FEF9FFF0FDFFFFF0FFFA3
:00000001FF
